{
  "contractName": "Item",
  "abi": [
    {
      "inputs": [
        {
          "internalType": "contract ItemManager",
          "name": "_parentContract",
          "type": "address"
        },
        {
          "internalType": "uint256",
          "name": "_itemPrice",
          "type": "uint256"
        },
        {
          "internalType": "uint256",
          "name": "_itemIndex",
          "type": "uint256"
        }
      ],
      "stateMutability": "nonpayable",
      "type": "constructor"
    },
    {
      "inputs": [],
      "name": "itemIndex",
      "outputs": [
        {
          "internalType": "uint256",
          "name": "",
          "type": "uint256"
        }
      ],
      "stateMutability": "view",
      "type": "function"
    },
    {
      "inputs": [],
      "name": "itemPrice",
      "outputs": [
        {
          "internalType": "uint256",
          "name": "",
          "type": "uint256"
        }
      ],
      "stateMutability": "view",
      "type": "function"
    },
    {
      "inputs": [],
      "name": "pricePaid",
      "outputs": [
        {
          "internalType": "uint256",
          "name": "",
          "type": "uint256"
        }
      ],
      "stateMutability": "view",
      "type": "function"
    },
    {
      "stateMutability": "payable",
      "type": "receive"
    }
  ],
  "bytecode": "0x608060405234801561001057600080fd5b506040516103ca3803806103ca83398101604081905261002f9161005b565b600080546001600160a01b0319166001600160a01b03949094169390931790925560015560035561009c565b60008060006060848603121561006f578283fd5b83516001600160a01b0381168114610085578384fd5b602085015160409095015190969495509392505050565b61031f806100ab6000396000f3fe6080604052600436106100385760003560e01c806389794d0014610162578063dac6db1c1461018d578063e07bb1a7146101a25761015d565b3661015d57600254156100665760405162461bcd60e51b815260040161005d90610239565b60405180910390fd5b34600154146100875760405162461bcd60e51b815260040161005d90610270565b346002600082825461009991906102c5565b9091555050600080546003546040516001600160a01b039092169134916100c2916024016102bc565b60408051601f198184030181529181526020820180516001600160e01b031663800fb83f60e01b179052516100f791906101c9565b60006040518083038185875af1925050503d8060008114610134576040519150601f19603f3d011682016040523d82523d6000602084013e610139565b606091505b505090508061015a5760405162461bcd60e51b815260040161005d90610202565b50005b600080fd5b34801561016e57600080fd5b506101776101b7565b60405161018491906102bc565b60405180910390f35b34801561019957600080fd5b506101776101bd565b3480156101ae57600080fd5b506101776101c3565b60025481565b60015481565b60035481565b60008251815b818110156101e957602081860181015185830152016101cf565b818111156101f75782828501525b509190910192915050565b60208082526017908201527f4661696c20746f2065786563757465207061796d656e74000000000000000000604082015260600190565b6020808252601f908201527f546865206974656d2068617320616c7265616479206265656e20706169642e00604082015260600190565b6020808252602c908201527f596f75206e65656420746f2070617920666f7220746865206974656d20696e2060408201526b32bc30b1ba10383934b1b29760a11b606082015260800190565b90815260200190565b600082198211156102e457634e487b7160e01b81526011600452602481fd5b50019056fea26469706673582212204b42f6985537d811e1b7178523ecd55d773e30c4ebd64dbc4f898d47f26316c364736f6c63430008000033",
  "immutableReferences": {},
  "source": "// SPDX-License-Identifier: MIT\npragma solidity ^0.8.0;\n\nimport { ItemManager } from \"./ItemManager.sol\";\n\ncontract Item {\n    \n    ItemManager parentContract;\n    uint256 public itemPrice;\n    uint256 public pricePaid;\n    uint256 public itemIndex;\n    constructor(ItemManager _parentContract, uint256 _itemPrice, uint256 _itemIndex) {\n        parentContract = _parentContract;\n        itemPrice = _itemPrice;\n        itemIndex = _itemIndex;\n    }\n    \n    receive() external payable {\n        require(pricePaid == 0, \"The item has already been paid.\");\n        require(itemPrice == msg.value, \"You need to pay for the item in exact price.\");\n        pricePaid += msg.value;\n        (bool ok, ) = address(parentContract).call{value:msg.value}(abi.encodeWithSignature(\"triggerPayment(uint256)\", itemIndex));\n        require(ok, \"Fail to execute payment\");\n    }\n}",
  "sourcePath": "/Users/macbookpro4eric/Projects/blockchain/project1_item_manager/contracts/Item.sol",
  "compiler": {
    "name": "solc",
    "version": "0.8.0+commit.c7dfd78e.Emscripten.clang"
  },
  "schemaVersion": "3.3.4",
  "updatedAt": "2021-03-29T02:59:54.322Z",
  "devdoc": {
    "kind": "dev",
    "methods": {},
    "version": 1
  },
  "userdoc": {
    "kind": "user",
    "methods": {},
    "version": 1
  }
}