{
  "contractName": "ItemManager",
  "abi": [
    {
      "anonymous": false,
      "inputs": [
        {
          "indexed": true,
          "internalType": "address",
          "name": "previousOwner",
          "type": "address"
        },
        {
          "indexed": true,
          "internalType": "address",
          "name": "newOwner",
          "type": "address"
        }
      ],
      "name": "OwnershipTransferred",
      "type": "event"
    },
    {
      "anonymous": false,
      "inputs": [
        {
          "indexed": false,
          "internalType": "uint256",
          "name": "_itemIndex",
          "type": "uint256"
        },
        {
          "indexed": false,
          "internalType": "uint256",
          "name": "_step",
          "type": "uint256"
        },
        {
          "indexed": false,
          "internalType": "address",
          "name": "_itemAddress",
          "type": "address"
        }
      ],
      "name": "supplyChainStep",
      "type": "event"
    },
    {
      "inputs": [
        {
          "internalType": "uint256",
          "name": "",
          "type": "uint256"
        }
      ],
      "name": "items",
      "outputs": [
        {
          "internalType": "string",
          "name": "_identifier",
          "type": "string"
        },
        {
          "internalType": "uint256",
          "name": "_itemPrice",
          "type": "uint256"
        },
        {
          "internalType": "contract Item",
          "name": "_item",
          "type": "address"
        },
        {
          "internalType": "enum ItemManager.SupplyChainState",
          "name": "_state",
          "type": "uint8"
        }
      ],
      "stateMutability": "view",
      "type": "function",
      "constant": true
    },
    {
      "inputs": [],
      "name": "owner",
      "outputs": [
        {
          "internalType": "address",
          "name": "",
          "type": "address"
        }
      ],
      "stateMutability": "view",
      "type": "function",
      "constant": true
    },
    {
      "inputs": [],
      "name": "renounceOwnership",
      "outputs": [],
      "stateMutability": "nonpayable",
      "type": "function"
    },
    {
      "inputs": [
        {
          "internalType": "address",
          "name": "newOwner",
          "type": "address"
        }
      ],
      "name": "transferOwnership",
      "outputs": [],
      "stateMutability": "nonpayable",
      "type": "function"
    },
    {
      "inputs": [
        {
          "internalType": "string",
          "name": "_identifier",
          "type": "string"
        },
        {
          "internalType": "uint256",
          "name": "_itemPrice",
          "type": "uint256"
        }
      ],
      "name": "crateItem",
      "outputs": [],
      "stateMutability": "nonpayable",
      "type": "function"
    },
    {
      "inputs": [
        {
          "internalType": "uint256",
          "name": "_itemIndex",
          "type": "uint256"
        }
      ],
      "name": "triggerPayment",
      "outputs": [],
      "stateMutability": "payable",
      "type": "function",
      "payable": true
    },
    {
      "inputs": [
        {
          "internalType": "uint256",
          "name": "_itemIndex",
          "type": "uint256"
        }
      ],
      "name": "triggerDelivery",
      "outputs": [],
      "stateMutability": "nonpayable",
      "type": "function"
    }
  ],
  "bytecode": "0x608060405234801561001057600080fd5b50600061001b61006a565b600080546001600160a01b0319166001600160a01b0383169081178255604051929350917f8be0079c531659141344cd1fd0a4f28419497f9722a3daafe3b4186f6b6457e0908290a35061006e565b3390565b610f0e8061007d6000396000f3fe6080604052600436106100705760003560e01c80638da5cb5b1161004e5780638da5cb5b146100bf578063bfb231d2146100ea578063cd31831e1461011a578063f2fde38b1461013a57610070565b8063661329b014610075578063715018a614610097578063800fb83f146100ac575b600080fd5b34801561008157600080fd5b506100956100903660046107e4565b61015a565b005b3480156100a357600080fd5b506100956102fd565b6100956100ba36600461088b565b610386565b3480156100cb57600080fd5b506100d46104bd565b6040516100e191906108d2565b60405180910390f35b3480156100f657600080fd5b5061010a61010536600461088b565b6104cc565b6040516100e19493929190610907565b34801561012657600080fd5b5061009561013536600461088b565b61058b565b34801561014657600080fd5b506100956101553660046107b6565b61064c565b61016261070c565b6001600160a01b03166101736104bd565b6001600160a01b0316146101a25760405162461bcd60e51b815260040161019990610a16565b60405180910390fd5b30816002546040516101b390610710565b6101bf939291906108e6565b604051809103906000f0801580156101db573d6000803e3d6000fd5b50600280546000908152600160209081526040808320840180546001600160a01b0319166001600160a01b039690961695909517909455915481529190912083516102289285019061071d565b50600280546000908152600160208190526040808320909101849055825482528082208301805460ff60a01b19169055825480835291208201547f52f087d97dd525b45ca8fefeb925a35f3f0fc5454a3588403de863a08295061892600160a01b90910460ff16908111156102ad57634e487b7160e01b600052602160045260246000fd5b60028054600090815260016020526040908190209091015490516102dc9392916001600160a01b031690610a77565b60405180910390a1600280549060006102f483610ad1565b91905055505050565b61030561070c565b6001600160a01b03166103166104bd565b6001600160a01b03161461033c5760405162461bcd60e51b815260040161019990610a16565b600080546040516001600160a01b03909116907f8be0079c531659141344cd1fd0a4f28419497f9722a3daafe3b4186f6b6457e0908390a3600080546001600160a01b0319169055565b6000818152600160208190526040909120015434146103b75760405162461bcd60e51b8152600401610199906109c4565b600080828152600160205260409020600290810154600160a01b900460ff16908111156103f457634e487b7160e01b600052602160045260246000fd5b146103fe57600080fd5b6000818152600160208190526040909120600201805460ff60a01b1916600160a01b835b021790555060008181526001602052604090206002908101547f52f087d97dd525b45ca8fefeb925a35f3f0fc5454a3588403de863a082950618918391600160a01b900460ff169081111561048757634e487b7160e01b600052602160045260246000fd5b600084815260016020526040908190206002015490516104b29392916001600160a01b031690610a77565b60405180910390a150565b6000546001600160a01b031690565b6001602052600090815260409020805481906104e790610a96565b80601f016020809104026020016040519081016040528092919081815260200182805461051390610a96565b80156105605780601f1061053557610100808354040283529160200191610560565b820191906000526020600020905b81548152906001019060200180831161054357829003601f168201915b5050505060018301546002909301549192916001600160a01b0381169150600160a01b900460ff1684565b61059361070c565b6001600160a01b03166105a46104bd565b6001600160a01b0316146105ca5760405162461bcd60e51b815260040161019990610a16565b60016000828152600160205260409020600290810154600160a01b900460ff169081111561060857634e487b7160e01b600052602160045260246000fd5b146106255760405162461bcd60e51b815260040161019990610a4b565b60008181526001602052604090206002908101805460ff60a01b1916600160a01b83610422565b61065461070c565b6001600160a01b03166106656104bd565b6001600160a01b03161461068b5760405162461bcd60e51b815260040161019990610a16565b6001600160a01b0381166106b15760405162461bcd60e51b81526004016101999061097e565b600080546040516001600160a01b03808516939216917f8be0079c531659141344cd1fd0a4f28419497f9722a3daafe3b4186f6b6457e091a3600080546001600160a01b0319166001600160a01b0392909216919091179055565b3390565b6103ca80610b0f83390190565b82805461072990610a96565b90600052602060002090601f01602090048101928261074b5760008555610791565b82601f1061076457805160ff1916838001178555610791565b82800160010185558215610791579182015b82811115610791578251825591602001919060010190610776565b5061079d9291506107a1565b5090565b5b8082111561079d57600081556001016107a2565b6000602082840312156107c7578081fd5b81356001600160a01b03811681146107dd578182fd5b9392505050565b600080604083850312156107f6578081fd5b823567ffffffffffffffff8082111561080d578283fd5b818501915085601f830112610820578283fd5b813560208282111561083457610834610af8565b604051601f8301601f191681018201848111828210171561085757610857610af8565b604052828152848301820189101561086d578586fd5b82828601838301379182018101949094529694909201359450505050565b60006020828403121561089c578081fd5b5035919050565b6001600160a01b03169052565b600381106108ce57634e487b7160e01b600052602160045260246000fd5b9052565b6001600160a01b0391909116815260200190565b6001600160a01b039390931683526020830191909152604082015260600190565b6000608082528551806080840152815b8181101561093457602081890181015160a0868401015201610917565b81811115610945578260a083860101525b5060208301869052601f01601f1916820160a001905061096860408301856108a3565b61097560608301846108b0565b95945050505050565b60208082526026908201527f4f776e61626c653a206e6577206f776e657220697320746865207a65726f206160408201526564647265737360d01b606082015260800190565b60208082526032908201527f4f6e6c7920616c6c6f77696e672066756c6c20706169642c20636865636b207960408201527137ba903830bcb6b2b73a1030b6b7bab73a1760711b606082015260800190565b6020808252818101527f4f776e61626c653a2063616c6c6572206973206e6f7420746865206f776e6572604082015260600190565b6020808252601290820152714974656d206e6f742070616964207965742160701b604082015260600190565b92835260208301919091526001600160a01b0316604082015260600190565b600281046001821680610aaa57607f821691505b60208210811415610acb57634e487b7160e01b600052602260045260246000fd5b50919050565b6000600019821415610af157634e487b7160e01b81526011600452602481fd5b5060010190565b634e487b7160e01b600052604160045260246000fdfe608060405234801561001057600080fd5b506040516103ca3803806103ca83398101604081905261002f9161005b565b600080546001600160a01b0319166001600160a01b03949094169390931790925560015560035561009c565b60008060006060848603121561006f578283fd5b83516001600160a01b0381168114610085578384fd5b602085015160409095015190969495509392505050565b61031f806100ab6000396000f3fe6080604052600436106100385760003560e01c806389794d0014610162578063dac6db1c1461018d578063e07bb1a7146101a25761015d565b3661015d57600254156100665760405162461bcd60e51b815260040161005d90610239565b60405180910390fd5b34600154146100875760405162461bcd60e51b815260040161005d90610270565b346002600082825461009991906102c5565b9091555050600080546003546040516001600160a01b039092169134916100c2916024016102bc565b60408051601f198184030181529181526020820180516001600160e01b031663800fb83f60e01b179052516100f791906101c9565b60006040518083038185875af1925050503d8060008114610134576040519150601f19603f3d011682016040523d82523d6000602084013e610139565b606091505b505090508061015a5760405162461bcd60e51b815260040161005d90610202565b50005b600080fd5b34801561016e57600080fd5b506101776101b7565b60405161018491906102bc565b60405180910390f35b34801561019957600080fd5b506101776101bd565b3480156101ae57600080fd5b506101776101c3565b60025481565b60015481565b60035481565b60008251815b818110156101e957602081860181015185830152016101cf565b818111156101f75782828501525b509190910192915050565b60208082526017908201527f4661696c20746f2065786563757465207061796d656e74000000000000000000604082015260600190565b6020808252601f908201527f546865206974656d2068617320616c7265616479206265656e20706169642e00604082015260600190565b6020808252602c908201527f596f75206e65656420746f2070617920666f7220746865206974656d20696e2060408201526b32bc30b1ba10383934b1b29760a11b606082015260800190565b90815260200190565b600082198211156102e457634e487b7160e01b81526011600452602481fd5b50019056fea26469706673582212204b42f6985537d811e1b7178523ecd55d773e30c4ebd64dbc4f898d47f26316c364736f6c63430008000033a2646970667358221220bc06a08eb14b8cfbf3a99f61309c5acdff854c6d845442bffbb291c7ba4cb72064736f6c63430008000033",
  "immutableReferences": {},
  "source": "// SPDX-License-Identifier: MIT\npragma solidity ^0.8.0;\n\nimport {Item} from  \"./Item.sol\";\nimport \"@openzeppelin/contracts/access/Ownable.sol\";\n\ncontract ItemManager is Ownable {\n    \n    enum SupplyChainState{Created, Paid, Delivered}\n    \n    event supplyChainStep(uint256 _itemIndex, uint256 _step, address _itemAddress);\n    \n    struct S_Item {\n        string _identifier;\n        uint256 _itemPrice;\n        Item _item;\n        ItemManager.SupplyChainState _state;\n    }\n    \n    mapping( uint256 => S_Item) public items;\n    uint itemIndex;\n    \n    function crateItem(string memory _identifier, uint _itemPrice) public onlyOwner{\n        items[itemIndex]._item = new Item(this, _itemPrice, itemIndex);\n        items[itemIndex]._identifier = _identifier;\n        items[itemIndex]._itemPrice = _itemPrice;\n        items[itemIndex]._state = SupplyChainState.Created;\n        emit supplyChainStep(itemIndex, uint(items[itemIndex]._state), address(items[itemIndex]._item));\n        itemIndex ++;\n    }\n    \n    function triggerPayment(uint256 _itemIndex) public payable {\n        require(items[_itemIndex]._itemPrice == msg.value, \"Only allowing full paid, check you payment amount.\");\n        require(items[_itemIndex]._state == SupplyChainState.Created);\n        items[_itemIndex]._state = SupplyChainState.Paid;\n        emit supplyChainStep(_itemIndex, uint(items[_itemIndex]._state), address(items[_itemIndex]._item));\n        \n        \n    }\n    \n    function triggerDelivery(uint256 _itemIndex) public onlyOwner {\n        require(items[_itemIndex]._state == SupplyChainState.Paid, \"Item not paid yet!\");\n        items[_itemIndex]._state = SupplyChainState.Delivered;\n        emit supplyChainStep(_itemIndex, uint(items[_itemIndex]._state), address(items[_itemIndex]._item));\n        \n    }    \n}",
  "sourcePath": "/Users/macbookpro4eric/Projects/blockchain/project1_item_manager/contracts/ItemManager.sol",
  "compiler": {
    "name": "solc",
    "version": "0.8.0+commit.c7dfd78e.Emscripten.clang"
  },
  "schemaVersion": "3.3.4",
  "updatedAt": "2021-04-02T09:45:32.645Z",
  "networkType": "ethereum",
  "devdoc": {
    "kind": "dev",
    "methods": {
      "owner()": {
        "details": "Returns the address of the current owner."
      },
      "renounceOwnership()": {
        "details": "Leaves the contract without owner. It will not be possible to call `onlyOwner` functions anymore. Can only be called by the current owner. NOTE: Renouncing ownership will leave the contract without an owner, thereby removing any functionality that is only available to the owner."
      },
      "transferOwnership(address)": {
        "details": "Transfers ownership of the contract to a new account (`newOwner`). Can only be called by the current owner."
      }
    },
    "version": 1
  },
  "userdoc": {
    "kind": "user",
    "methods": {},
    "version": 1
  }
}